{
  "contractName": "B",
  "abi": [
    {
      "inputs": [
        {
          "internalType": "string",
          "name": "_name",
          "type": "string"
        },
        {
          "internalType": "uint256",
          "name": "_age",
          "type": "uint256"
        }
      ],
      "name": "change",
      "outputs": [],
      "stateMutability": "nonpayable",
      "type": "function"
    },
    {
      "inputs": [],
      "name": "get",
      "outputs": [
        {
          "internalType": "string",
          "name": "",
          "type": "string"
        },
        {
          "internalType": "uint256",
          "name": "",
          "type": "uint256"
        }
      ],
      "stateMutability": "view",
      "type": "function"
    }
  ],
  "bytecode": "0x6080604052603460405161001290610085565b61001c9190610137565b604051809103905ff080158015610035573d5f803e3d5ffd5b505f806101000a81548173ffffffffffffffffffffffffffffffffffffffff021916908373ffffffffffffffffffffffffffffffffffffffff16021790555034801561007f575f80fd5b50610163565b610c788061075083390190565b5f82825260208201905092915050565b7f416c6963650000000000000000000000000000000000000000000000000000005f82015250565b5f6100d6600583610092565b91506100e1826100a2565b602082019050919050565b5f819050919050565b5f819050919050565b5f819050919050565b5f61012161011c610117846100ec565b6100fe565b6100f5565b9050919050565b61013181610107565b82525050565b5f6040820190508181035f83015261014e816100ca565b905061015d6020830184610128565b92915050565b6105e0806101705f395ff3fe608060405234801561000f575f80fd5b5060043610610034575f3560e01c80636d4ce63c146100385780636d806b1e14610057575b5f80fd5b610040610073565b60405161004e9291906102c7565b60405180910390f35b610071600480360381019061006c919061045c565b61019a565b005b60605f805f9054906101000a900473ffffffffffffffffffffffffffffffffffffffff1673ffffffffffffffffffffffffffffffffffffffff166306fdde036040518163ffffffff1660e01b81526004015f60405180830381865afa1580156100de573d5f803e3d5ffd5b505050506040513d5f823e3d601f19601f820116820180604052508101906101069190610524565b5f8054906101000a900473ffffffffffffffffffffffffffffffffffffffff1673ffffffffffffffffffffffffffffffffffffffff1663262a9dff6040518163ffffffff1660e01b8152600401602060405180830381865afa15801561016e573d5f803e3d5ffd5b505050506040513d601f19601f82011682018060405250810190610192919061057f565b915091509091565b5f8054906101000a900473ffffffffffffffffffffffffffffffffffffffff1673ffffffffffffffffffffffffffffffffffffffff16636d806b1e83836040518363ffffffff1660e01b81526004016101f49291906102c7565b5f604051808303815f87803b15801561020b575f80fd5b505af115801561021d573d5f803e3d5ffd5b505050505050565b5f81519050919050565b5f82825260208201905092915050565b5f5b8381101561025c578082015181840152602081019050610241565b5f8484015250505050565b5f601f19601f8301169050919050565b5f61028182610225565b61028b818561022f565b935061029b81856020860161023f565b6102a481610267565b840191505092915050565b5f819050919050565b6102c1816102af565b82525050565b5f6040820190508181035f8301526102df8185610277565b90506102ee60208301846102b8565b9392505050565b5f604051905090565b5f80fd5b5f80fd5b5f80fd5b5f80fd5b7f4e487b71000000000000000000000000000000000000000000000000000000005f52604160045260245ffd5b61034482610267565b810181811067ffffffffffffffff821117156103635761036261030e565b5b80604052505050565b5f6103756102f5565b9050610381828261033b565b919050565b5f67ffffffffffffffff8211156103a05761039f61030e565b5b6103a982610267565b9050602081019050919050565b828183375f83830152505050565b5f6103d66103d184610386565b61036c565b9050828152602081018484840111156103f2576103f161030a565b5b6103fd8482856103b6565b509392505050565b5f82601f83011261041957610418610306565b5b81356104298482602086016103c4565b91505092915050565b61043b816102af565b8114610445575f80fd5b50565b5f8135905061045681610432565b92915050565b5f8060408385031215610472576104716102fe565b5b5f83013567ffffffffffffffff81111561048f5761048e610302565b5b61049b85828601610405565b92505060206104ac85828601610448565b9150509250929050565b5f6104c86104c384610386565b61036c565b9050828152602081018484840111156104e4576104e361030a565b5b6104ef84828561023f565b509392505050565b5f82601f83011261050b5761050a610306565b5b815161051b8482602086016104b6565b91505092915050565b5f60208284031215610539576105386102fe565b5b5f82015167ffffffffffffffff81111561055657610555610302565b5b610562848285016104f7565b91505092915050565b5f8151905061057981610432565b92915050565b5f60208284031215610594576105936102fe565b5b5f6105a18482850161056b565b9150509291505056fea26469706673582212202817aa3d38d1f813cc43f4f0676906d70dc81e7c1a735952b97e7d398d8505a064736f6c63430008150033608060405234801562000010575f80fd5b5060405162000c7838038062000c78833981810160405281019062000036919062000213565b815f9081620000469190620004a5565b5080600181905550505062000589565b5f604051905090565b5f80fd5b5f80fd5b5f80fd5b5f80fd5b5f601f19601f8301169050919050565b7f4e487b71000000000000000000000000000000000000000000000000000000005f52604160045260245ffd5b620000b7826200006f565b810181811067ffffffffffffffff82111715620000d957620000d86200007f565b5b80604052505050565b5f620000ed62000056565b9050620000fb8282620000ac565b919050565b5f67ffffffffffffffff8211156200011d576200011c6200007f565b5b62000128826200006f565b9050602081019050919050565b5f5b838110156200015457808201518184015260208101905062000137565b5f8484015250505050565b5f620001756200016f8462000100565b620000e2565b9050828152602081018484840111156200019457620001936200006b565b5b620001a184828562000135565b509392505050565b5f82601f830112620001c057620001bf62000067565b5b8151620001d28482602086016200015f565b91505092915050565b5f819050919050565b620001ef81620001db565b8114620001fa575f80fd5b50565b5f815190506200020d81620001e4565b92915050565b5f80604083850312156200022c576200022b6200005f565b5b5f83015167ffffffffffffffff8111156200024c576200024b62000063565b5b6200025a85828601620001a9565b92505060206200026d85828601620001fd565b9150509250929050565b5f81519050919050565b7f4e487b71000000000000000000000000000000000000000000000000000000005f52602260045260245ffd5b5f6002820490506001821680620002c657607f821691505b602082108103620002dc57620002db62000281565b5b50919050565b5f819050815f5260205f209050919050565b5f6020601f8301049050919050565b5f82821b905092915050565b5f60088302620003407fffffffffffffffffffffffffffffffffffffffffffffffffffffffffffffffff8262000303565b6200034c868362000303565b95508019841693508086168417925050509392505050565b5f819050919050565b5f6200038d620003876200038184620001db565b62000364565b620001db565b9050919050565b5f819050919050565b620003a8836200036d565b620003c0620003b78262000394565b8484546200030f565b825550505050565b5f90565b620003d6620003c8565b620003e38184846200039d565b505050565b5b818110156200040a57620003fe5f82620003cc565b600181019050620003e9565b5050565b601f82111562000459576200042381620002e2565b6200042e84620002f4565b810160208510156200043e578190505b620004566200044d85620002f4565b830182620003e8565b50505b505050565b5f82821c905092915050565b5f6200047b5f19846008026200045e565b1980831691505092915050565b5f6200049583836200046a565b9150826002028217905092915050565b620004b08262000277565b67ffffffffffffffff811115620004cc57620004cb6200007f565b5b620004d88254620002ae565b620004e58282856200040e565b5f60209050601f8311600181146200051b575f841562000506578287015190505b62000512858262000488565b86555062000581565b601f1984166200052b86620002e2565b5f5b8281101562000554578489015182556001820191506020850194506020810190506200052d565b8683101562000574578489015162000570601f8916826200046a565b8355505b6001600288020188555050505b505050505050565b6106e180620005975f395ff3fe608060405234801561000f575f80fd5b506004361061003f575f3560e01c806306fdde0314610043578063262a9dff146100615780636d806b1e1461007f575b5f80fd5b61004b61009b565b60405161005891906101d0565b60405180910390f35b610069610126565b6040516100769190610208565b60405180910390f35b61009960048036038101906100949190610388565b61012c565b005b5f80546100a79061040f565b80601f01602080910402602001604051908101604052809291908181526020018280546100d39061040f565b801561011e5780601f106100f55761010080835404028352916020019161011e565b820191905f5260205f20905b81548152906001019060200180831161010157829003601f168201915b505050505081565b60015481565b815f908161013a91906105dc565b50806001819055505050565b5f81519050919050565b5f82825260208201905092915050565b5f5b8381101561017d578082015181840152602081019050610162565b5f8484015250505050565b5f601f19601f8301169050919050565b5f6101a282610146565b6101ac8185610150565b93506101bc818560208601610160565b6101c581610188565b840191505092915050565b5f6020820190508181035f8301526101e88184610198565b905092915050565b5f819050919050565b610202816101f0565b82525050565b5f60208201905061021b5f8301846101f9565b92915050565b5f604051905090565b5f80fd5b5f80fd5b5f80fd5b5f80fd5b7f4e487b71000000000000000000000000000000000000000000000000000000005f52604160045260245ffd5b61027082610188565b810181811067ffffffffffffffff8211171561028f5761028e61023a565b5b80604052505050565b5f6102a1610221565b90506102ad8282610267565b919050565b5f67ffffffffffffffff8211156102cc576102cb61023a565b5b6102d582610188565b9050602081019050919050565b828183375f83830152505050565b5f6103026102fd846102b2565b610298565b90508281526020810184848401111561031e5761031d610236565b5b6103298482856102e2565b509392505050565b5f82601f83011261034557610344610232565b5b81356103558482602086016102f0565b91505092915050565b610367816101f0565b8114610371575f80fd5b50565b5f813590506103828161035e565b92915050565b5f806040838503121561039e5761039d61022a565b5b5f83013567ffffffffffffffff8111156103bb576103ba61022e565b5b6103c785828601610331565b92505060206103d885828601610374565b9150509250929050565b7f4e487b71000000000000000000000000000000000000000000000000000000005f52602260045260245ffd5b5f600282049050600182168061042657607f821691505b602082108103610439576104386103e2565b5b50919050565b5f819050815f5260205f209050919050565b5f6020601f8301049050919050565b5f82821b905092915050565b5f6008830261049b7fffffffffffffffffffffffffffffffffffffffffffffffffffffffffffffffff82610460565b6104a58683610460565b95508019841693508086168417925050509392505050565b5f819050919050565b5f6104e06104db6104d6846101f0565b6104bd565b6101f0565b9050919050565b5f819050919050565b6104f9836104c6565b61050d610505826104e7565b84845461046c565b825550505050565b5f90565b610521610515565b61052c8184846104f0565b505050565b5b8181101561054f576105445f82610519565b600181019050610532565b5050565b601f821115610594576105658161043f565b61056e84610451565b8101602085101561057d578190505b61059161058985610451565b830182610531565b50505b505050565b5f82821c905092915050565b5f6105b45f1984600802610599565b1980831691505092915050565b5f6105cc83836105a5565b9150826002028217905092915050565b6105e582610146565b67ffffffffffffffff8111156105fe576105fd61023a565b5b610608825461040f565b610613828285610553565b5f60209050601f831160018114610644575f8415610632578287015190505b61063c85826105c1565b8655506106a3565b601f1984166106528661043f565b5f5b8281101561067957848901518255600182019150602085019450602081019050610654565b868310156106965784890151610692601f8916826105a5565b8355505b6001600288020188555050505b50505050505056fea2646970667358221220e00e380ac26fc17236eea37d989ddf7d37a8b08eccb125676784e44a4508a05164736f6c63430008150033",
  "immutableReferences": {},
  "source": "// SPDX-License-Identifier:GPL-30\npragma solidity >= 0.7.0 < 0.9.0;\n\ncontract A{\n    \n    string public name;\n    uint256 public age;\n    \n    constructor(string memory _name, uint256 _age){\n        name = _name;\n        age = _age;\n    }\n        \n    function change(string memory _name, uint256 _age) public  {\n         name = _name;\n         age = _age;\n    }\n}\n\ncontract B{\n    \n  A instance = new A(\"Alice\", 52);\n  \n  function change(string memory _name, uint256 _age) public  {\n        instance.change(_name,_age);\n    }\n  \n  function get() public view returns(string memory, uint256) {\n        return (instance.name(), instance.age());\n    }\n\n}",
  "sourcePath": "/Users/a1/Desktop/study/study-solidity/contracts/lec9.sol",
  "compiler": {
    "name": "solc",
    "version": "0.8.21+commit.d9974bed.Emscripten.clang"
  },
  "schemaVersion": "3.4.16",
  "updatedAt": "2024-09-03T14:42:59.993Z",
  "devdoc": {
    "kind": "dev",
    "methods": {},
    "version": 1
  },
  "userdoc": {
    "kind": "user",
    "methods": {},
    "version": 1
  }
}