{
  "contractName": "external_example_2",
  "abi": [
    {
      "inputs": [],
      "name": "external_example_get_a",
      "outputs": [
        {
          "internalType": "uint256",
          "name": "",
          "type": "uint256"
        }
      ],
      "stateMutability": "view",
      "type": "function"
    }
  ],
  "bytecode": "0x608060405260405161001090610079565b604051809103905ff080158015610029573d5f803e3d5ffd5b505f806101000a81548173ffffffffffffffffffffffffffffffffffffffff021916908373ffffffffffffffffffffffffffffffffffffffff160217905550348015610073575f80fd5b50610085565b60cf8061023083390190565b61019e806100925f395ff3fe608060405234801561000f575f80fd5b5060043610610029575f3560e01c80636285f91d1461002d575b5f80fd5b61003561004b565b60405161004291906100f6565b60405180910390f35b5f805f9054906101000a900473ffffffffffffffffffffffffffffffffffffffff1673ffffffffffffffffffffffffffffffffffffffff1663481591816040518163ffffffff1660e01b8152600401602060405180830381865afa1580156100b5573d5f803e3d5ffd5b505050506040513d601f19601f820116820180604052508101906100d9919061013d565b905090565b5f819050919050565b6100f0816100de565b82525050565b5f6020820190506101095f8301846100e7565b92915050565b5f80fd5b61011c816100de565b8114610126575f80fd5b50565b5f8151905061013781610113565b92915050565b5f602082840312156101525761015161010f565b5b5f61015f84828501610129565b9150509291505056fea264697066735822122039f06b35ea6804618d801a0980604be36c0d7ef3ba8e350647b2b4f1c9cb7dd964736f6c63430008150033608060405260035f55348015610013575f80fd5b5060af806100205f395ff3fe6080604052348015600e575f80fd5b50600436106026575f3560e01c80634815918114602a575b5f80fd5b60306044565b604051603b91906062565b60405180910390f35b5f8054905090565b5f819050919050565b605c81604c565b82525050565b5f60208201905060735f8301846055565b9291505056fea2646970667358221220ea1685771959ff9fb44abb508610dd1550f8460ee06c019e7116196c860f210864736f6c63430008150033",
  "immutableReferences": {},
  "source": "// SPDX-License-Identifier: GPL-3.0\n\npragma solidity >=0.7.0 < 0.9.0;\n\ncontract lec5{\n    \n    //1.public\n    uint256 public a = 3;\n    \n    //2.private\n    uint256 private a2 = 5;\n    \n    \n}\n\n\ncontract Public_example {\n    uint256 public a = 3;\n    \n    function changeA(uint256 _value) public {\n        a =_value;\n    }\n    function get_a() view public returns (uint256)  {\n        return a;\n    }\n}\n\ncontract Public_example_2 {\n    \n    Public_example instance = new Public_example();\n\n    function changeA_2(uint256 _value) public{\n      instance.changeA(_value);\n    }\n    function use_public_example_a() view public returns (uint256)  {\n        return instance.get_a();\n    }\n}\n\ncontract private_example {\n    uint256 private a = 3;\n    \n    function get_a() view public returns (uint256)  {\n        return a;\n    }\n\n}\n\ncontract external_example {\n    uint256 private a = 3;\n    \n    function get_a() view external returns (uint256)  {\n        return a;\n    }\n\n}\n\ncontract external_example_2 {\n    \n    external_example instance = new external_example();\n\n    function external_example_get_a() view public returns (uint256)  {\n        return instance.get_a();\n    }\n}",
  "sourcePath": "/Users/a1/Desktop/study/study-solidity/contracts/lec5.sol",
  "compiler": {
    "name": "solc",
    "version": "0.8.21+commit.d9974bed.Emscripten.clang"
  },
  "schemaVersion": "3.4.16",
  "updatedAt": "2024-09-03T14:42:59.990Z",
  "devdoc": {
    "kind": "dev",
    "methods": {},
    "version": 1
  },
  "userdoc": {
    "kind": "user",
    "methods": {},
    "version": 1
  }
}