{
  "contractName": "Father",
  "abi": [
    {
      "inputs": [
        {
          "internalType": "string",
          "name": "_givenName",
          "type": "string"
        }
      ],
      "stateMutability": "nonpayable",
      "type": "constructor"
    },
    {
      "inputs": [],
      "name": "familyName",
      "outputs": [
        {
          "internalType": "string",
          "name": "",
          "type": "string"
        }
      ],
      "stateMutability": "view",
      "type": "function"
    },
    {
      "inputs": [],
      "name": "givenName",
      "outputs": [
        {
          "internalType": "string",
          "name": "",
          "type": "string"
        }
      ],
      "stateMutability": "view",
      "type": "function"
    },
    {
      "inputs": [],
      "name": "money",
      "outputs": [
        {
          "internalType": "uint256",
          "name": "",
          "type": "uint256"
        }
      ],
      "stateMutability": "view",
      "type": "function"
    },
    {
      "inputs": [],
      "name": "getFamilyName",
      "outputs": [
        {
          "internalType": "string",
          "name": "",
          "type": "string"
        }
      ],
      "stateMutability": "view",
      "type": "function"
    },
    {
      "inputs": [],
      "name": "getGivenName",
      "outputs": [
        {
          "internalType": "string",
          "name": "",
          "type": "string"
        }
      ],
      "stateMutability": "view",
      "type": "function"
    },
    {
      "inputs": [],
      "name": "getMoney",
      "outputs": [
        {
          "internalType": "uint256",
          "name": "",
          "type": "uint256"
        }
      ],
      "stateMutability": "view",
      "type": "function"
    }
  ],
  "bytecode": "0x60806040526040518060400160405280600381526020017f4b696d00000000000000000000000000000000000000000000000000000000008152505f908162000049919062000345565b506040518060400160405280600481526020017f4a756e67000000000000000000000000000000000000000000000000000000008152506001908162000090919062000345565b506064600255348015620000a2575f80fd5b5060405162000aa938038062000aa98339818101604052810190620000c8919062000581565b8060019081620000d9919062000345565b5050620005d0565b5f81519050919050565b7f4e487b71000000000000000000000000000000000000000000000000000000005f52604160045260245ffd5b7f4e487b71000000000000000000000000000000000000000000000000000000005f52602260045260245ffd5b5f60028204905060018216806200015d57607f821691505b60208210810362000173576200017262000118565b5b50919050565b5f819050815f5260205f209050919050565b5f6020601f8301049050919050565b5f82821b905092915050565b5f60088302620001d77fffffffffffffffffffffffffffffffffffffffffffffffffffffffffffffffff826200019a565b620001e386836200019a565b95508019841693508086168417925050509392505050565b5f819050919050565b5f819050919050565b5f6200022d620002276200022184620001fb565b62000204565b620001fb565b9050919050565b5f819050919050565b62000248836200020d565b62000260620002578262000234565b848454620001a6565b825550505050565b5f90565b6200027662000268565b620002838184846200023d565b505050565b5b81811015620002aa576200029e5f826200026c565b60018101905062000289565b5050565b601f821115620002f957620002c38162000179565b620002ce846200018b565b81016020851015620002de578190505b620002f6620002ed856200018b565b83018262000288565b50505b505050565b5f82821c905092915050565b5f6200031b5f1984600802620002fe565b1980831691505092915050565b5f6200033583836200030a565b9150826002028217905092915050565b6200035082620000e1565b67ffffffffffffffff8111156200036c576200036b620000eb565b5b62000378825462000145565b62000385828285620002ae565b5f60209050601f831160018114620003bb575f8415620003a6578287015190505b620003b2858262000328565b86555062000421565b601f198416620003cb8662000179565b5f5b82811015620003f457848901518255600182019150602085019450602081019050620003cd565b8683101562000414578489015162000410601f8916826200030a565b8355505b6001600288020188555050505b505050505050565b5f604051905090565b5f80fd5b5f80fd5b5f80fd5b5f80fd5b5f601f19601f8301169050919050565b6200045d8262000442565b810181811067ffffffffffffffff821117156200047f576200047e620000eb565b5b80604052505050565b5f6200049362000429565b9050620004a1828262000452565b919050565b5f67ffffffffffffffff821115620004c357620004c2620000eb565b5b620004ce8262000442565b9050602081019050919050565b5f5b83811015620004fa578082015181840152602081019050620004dd565b5f8484015250505050565b5f6200051b6200051584620004a6565b62000488565b9050828152602081018484840111156200053a57620005396200043e565b5b62000547848285620004db565b509392505050565b5f82601f8301126200056657620005656200043a565b5b81516200057884826020860162000505565b91505092915050565b5f6020828403121562000599576200059862000432565b5b5f82015167ffffffffffffffff811115620005b957620005b862000436565b5b620005c7848285016200054f565b91505092915050565b6104cb80620005de5f395ff3fe608060405234801561000f575f80fd5b5060043610610060575f3560e01c806316c3e3b3146100645780634ddd108a146100825780637853512c146100a057806398e1b410146100be578063c515945b146100dc578063d26e329b146100fa575b5f80fd5b61006c610118565b60405161007991906103e7565b60405180910390f35b61008a6101a7565b604051610097919061041f565b60405180910390f35b6100a86101ad565b6040516100b591906103e7565b60405180910390f35b6100c6610239565b6040516100d3919061041f565b60405180910390f35b6100e4610242565b6040516100f191906103e7565b60405180910390f35b6101026102d2565b60405161010f91906103e7565b60405180910390f35b60605f805461012690610465565b80601f016020809104026020016040519081016040528092919081815260200182805461015290610465565b801561019d5780601f106101745761010080835404028352916020019161019d565b820191905f5260205f20905b81548152906001019060200180831161018057829003601f168201915b5050505050905090565b60025481565b600180546101ba90610465565b80601f01602080910402602001604051908101604052809291908181526020018280546101e690610465565b80156102315780601f1061020857610100808354040283529160200191610231565b820191905f5260205f20905b81548152906001019060200180831161021457829003601f168201915b505050505081565b5f600254905090565b60606001805461025190610465565b80601f016020809104026020016040519081016040528092919081815260200182805461027d90610465565b80156102c85780601f1061029f576101008083540402835291602001916102c8565b820191905f5260205f20905b8154815290600101906020018083116102ab57829003601f168201915b5050505050905090565b5f80546102de90610465565b80601f016020809104026020016040519081016040528092919081815260200182805461030a90610465565b80156103555780601f1061032c57610100808354040283529160200191610355565b820191905f5260205f20905b81548152906001019060200180831161033857829003601f168201915b505050505081565b5f81519050919050565b5f82825260208201905092915050565b5f5b83811015610394578082015181840152602081019050610379565b5f8484015250505050565b5f601f19601f8301169050919050565b5f6103b98261035d565b6103c38185610367565b93506103d3818560208601610377565b6103dc8161039f565b840191505092915050565b5f6020820190508181035f8301526103ff81846103af565b905092915050565b5f819050919050565b61041981610407565b82525050565b5f6020820190506104325f830184610410565b92915050565b7f4e487b71000000000000000000000000000000000000000000000000000000005f52602260045260245ffd5b5f600282049050600182168061047c57607f821691505b60208210810361048f5761048e610438565b5b5091905056fea2646970667358221220f7dd9bec8bc0d585ad2cbf79963fd3f96b9a4e766f516187bb30ac0a9717ddc664736f6c63430008150033",
  "immutableReferences": {},
  "source": "// SPDX-License-Identifier:GPL-30\npragma solidity >= 0.7.0 < 0.9.0;\n\ncontract Father{\n    \n    string public familyName = \"Kim\";\n    string public givenName = \"Jung\";\n    uint256 public money = 100; \n    \n    constructor(string memory _givenName) public {\n        givenName = _givenName;\n    }\n    \n    \n    function getFamilyName() view public  returns(string memory){\n        return familyName;\n    } \n    \n    function getGivenName() view public  returns(string memory){\n        return givenName;\n    } \n    \n    function getMoney() view  public virtual returns(uint256){\n        return money;\n    }\n    \n    \n}\n\ncontract Son is Father(\"James\"){\n    \n    \n    uint256 public earning = 0;\n    function work() public {\n        earning += 100;\n    }\n    \n     function getMoney() view  public override returns(uint256){\n        return money+earning;\n    }\n\n}",
  "sourcePath": "/Users/a1/Desktop/study/study-solidity/contracts/lec11.sol",
  "compiler": {
    "name": "solc",
    "version": "0.8.21+commit.d9974bed.Emscripten.clang"
  },
  "schemaVersion": "3.4.16",
  "updatedAt": "2024-09-03T14:42:59.986Z",
  "devdoc": {
    "kind": "dev",
    "methods": {},
    "version": 1
  },
  "userdoc": {
    "kind": "user",
    "methods": {},
    "version": 1
  }
}