{
  "contractName": "lec2",
  "abi": [
    {
      "inputs": [],
      "name": "value",
      "outputs": [
        {
          "internalType": "uint256",
          "name": "",
          "type": "uint256"
        }
      ],
      "stateMutability": "view",
      "type": "function"
    },
    {
      "inputs": [],
      "name": "value2",
      "outputs": [
        {
          "internalType": "uint256",
          "name": "",
          "type": "uint256"
        }
      ],
      "stateMutability": "view",
      "type": "function"
    },
    {
      "inputs": [],
      "name": "value3",
      "outputs": [
        {
          "internalType": "uint256",
          "name": "",
          "type": "uint256"
        }
      ],
      "stateMutability": "view",
      "type": "function"
    }
  ],
  "bytecode": "0x6080604052670de0b6b3a76400005f5560018055633b9aca00600255348015610026575f80fd5b50610100806100345f395ff3fe6080604052348015600e575f80fd5b5060043610603a575f3560e01c80633fa4f24514603e5780635d33a27f146058578063aef52a2c146072575b5f80fd5b6044608c565b604051604f919060b3565b60405180910390f35b605e6091565b6040516069919060b3565b60405180910390f35b60786097565b6040516083919060b3565b60405180910390f35b5f5481565b60015481565b60025481565b5f819050919050565b60ad81609d565b82525050565b5f60208201905060c45f83018460a6565b9291505056fea2646970667358221220c15cf6dc919d2c62ae2a96725024e481b9c5ff40fc48fed1624c86be03ede4fd64736f6c63430008150033",
  "immutableReferences": {},
  "source": "// SPDX-License-Identifier: GPL-3.0\n\npragma solidity >=0.7.0 < 0.9.0;\n/*\n    1 ether = 10^9 gwei = 10^18wei\n    0.000000000000000001 = 1^-18 =1wei\n    0.01 ether = 10^16 gwei\n*/\ncontract lec2{\n    uint256 public value = 1 ether;\n    uint256 public value2 = 1 wei;\n    uint256 public value3 = 1 gwei;\n}",
  "sourcePath": "/Users/a1/Desktop/study/study-solidity/contracts/lec3.sol",
  "compiler": {
    "name": "solc",
    "version": "0.8.21+commit.d9974bed.Emscripten.clang"
  },
  "schemaVersion": "3.4.16",
  "updatedAt": "2024-09-03T14:42:59.988Z",
  "devdoc": {
    "kind": "dev",
    "methods": {},
    "version": 1
  },
  "userdoc": {
    "kind": "user",
    "methods": {},
    "version": 1
  }
}