{
  "contractName": "lec4",
  "abi": [
    {
      "inputs": [],
      "name": "a",
      "outputs": [
        {
          "internalType": "uint256",
          "name": "",
          "type": "uint256"
        }
      ],
      "stateMutability": "view",
      "type": "function"
    },
    {
      "inputs": [],
      "name": "changeA1",
      "outputs": [],
      "stateMutability": "nonpayable",
      "type": "function"
    },
    {
      "inputs": [
        {
          "internalType": "uint256",
          "name": "_value",
          "type": "uint256"
        }
      ],
      "name": "changeA2",
      "outputs": [],
      "stateMutability": "nonpayable",
      "type": "function"
    },
    {
      "inputs": [],
      "name": "changeA3",
      "outputs": [
        {
          "internalType": "uint256",
          "name": "",
          "type": "uint256"
        }
      ],
      "stateMutability": "view",
      "type": "function"
    },
    {
      "inputs": [
        {
          "internalType": "uint256",
          "name": "_value",
          "type": "uint256"
        }
      ],
      "name": "changeA4",
      "outputs": [
        {
          "internalType": "uint256",
          "name": "",
          "type": "uint256"
        }
      ],
      "stateMutability": "nonpayable",
      "type": "function"
    }
  ],
  "bytecode": "0x608060405260035f55348015610013575f80fd5b506101da806100215f395ff3fe608060405234801561000f575f80fd5b5060043610610055575f3560e01c80630dbe671f146100595780631fd29060146100775780638395bb0114610081578063910dbc9d146100b1578063a9af0691146100cd575b5f80fd5b6100616100eb565b60405161006e9190610132565b60405180910390f35b61007f6100f0565b005b61009b60048036038101906100969190610179565b6100f9565b6040516100a89190610132565b60405180910390f35b6100cb60048036038101906100c69190610179565b610109565b005b6100d5610112565b6040516100e29190610132565b60405180910390f35b5f5481565b60055f81905550565b5f815f819055505f549050919050565b805f8190555050565b5f8054905090565b5f819050919050565b61012c8161011a565b82525050565b5f6020820190506101455f830184610123565b92915050565b5f80fd5b6101588161011a565b8114610162575f80fd5b50565b5f813590506101738161014f565b92915050565b5f6020828403121561018e5761018d61014b565b5b5f61019b84828501610165565b9150509291505056fea264697066735822122099a38ed456277bbce9359336810105bb696f9b1247f4596443cf9440fd7bf69864736f6c63430008150033",
  "immutableReferences": {},
  "source": "// SPDX-License-Identifier: GPL-3.0\n\npragma solidity >=0.7.0 < 0.9.0;\n\n// contract는 class와 비슷하다고 생각하면 된다.\ncontract lec4{\n    /*\n    function 이름() public { // (public,private,internal,external) 변경가능 \n        // 내용\n    }\n    */\n   \n   uint256 public a = 3;\n\n   //1. parameter 와 return 값이 없는 function \n   function changeA1() public{\n       a = 5;\n   }\n   \n   //2. parameter 값이 있는 function \n   function changeA2(uint256 _value) public{\n       a = _value;\n   }\n   \n   //3. return 값이 있는 function\n   // view는 함수 수정자라고 불린다.\n   // 변수의 값을 변경하지 않고 반환만 하는 경우, 즉 변경하지 않는 경우 view키워드를 사용해 변경할수 없다는 것을 명시해야한다.\n   // view 키워드가 붙을 경우 블록체인에 기록이 남지 않기 때문에 이 함수를 호출 할 때 가스비를 지불하지 않아도 된다.\n   function changeA3() public view returns(uint256){\n       return a;\n   }\n   \n   //4. parameter 와 return 값이 있는 function \n   function changeA4(uint256 _value) public returns(uint256){\n       a = _value;\n       return a;\n   }\n}",
  "sourcePath": "/Users/a1/Desktop/study/study-solidity/contracts/lec4.sol",
  "compiler": {
    "name": "solc",
    "version": "0.8.21+commit.d9974bed.Emscripten.clang"
  },
  "schemaVersion": "3.4.16",
  "updatedAt": "2024-09-03T14:42:59.988Z",
  "devdoc": {
    "kind": "dev",
    "methods": {},
    "version": 1
  },
  "userdoc": {
    "kind": "user",
    "methods": {},
    "version": 1
  }
}