{
  "contractName": "lec6",
  "abi": [
    {
      "inputs": [],
      "name": "a",
      "outputs": [
        {
          "internalType": "uint256",
          "name": "",
          "type": "uint256"
        }
      ],
      "stateMutability": "view",
      "type": "function"
    },
    {
      "inputs": [],
      "name": "viewExample",
      "outputs": [
        {
          "internalType": "uint256",
          "name": "",
          "type": "uint256"
        }
      ],
      "stateMutability": "view",
      "type": "function"
    },
    {
      "inputs": [],
      "name": "readAndChangeA",
      "outputs": [
        {
          "internalType": "uint256",
          "name": "",
          "type": "uint256"
        }
      ],
      "stateMutability": "nonpayable",
      "type": "function"
    },
    {
      "inputs": [],
      "name": "pureExample",
      "outputs": [
        {
          "internalType": "uint256",
          "name": "",
          "type": "uint256"
        }
      ],
      "stateMutability": "pure",
      "type": "function"
    }
  ],
  "bytecode": "0x608060405260015f55348015610013575f80fd5b506101da806100215f395ff3fe608060405234801561000f575f80fd5b506004361061004a575f3560e01c80630dbe671f1461004e5780631ab76a121461006c5780635c0705f51461008a578063a9490bbd146100a8575b5f80fd5b6100566100c6565b604051610063919061012b565b60405180910390f35b6100746100cb565b604051610081919061012b565b60405180910390f35b6100926100e4565b60405161009f919061012b565b60405180910390f35b6100b06100ff565b6040516100bd919061012b565b60405180910390f35b5f5481565b5f80600390506002816100de9190610171565b91505090565b5f60035f8190555060025f546100fa9190610171565b905090565b5f60025f5461010e9190610171565b905090565b5f819050919050565b61012581610113565b82525050565b5f60208201905061013e5f83018461011c565b92915050565b7f4e487b71000000000000000000000000000000000000000000000000000000005f52601160045260245ffd5b5f61017b82610113565b915061018683610113565b925082820190508082111561019e5761019d610144565b5b9291505056fea2646970667358221220415fa7a357d5882484bfbaed8dba82958edb479903deec73d8ad12775c516a8364736f6c63430008150033",
  "immutableReferences": {},
  "source": "// SPDX-License-Identifier: GPL-3.0\n\npragma solidity >=0.7.0 < 0.9.0;\n\ncontract lec6{\n     uint256 public a = 1;\n    \n    function viewExample() public view returns(uint256){\n        return a+2;\n    }\n    \n    function readAndChangeA() public returns(uint256){\n        a = 3;\n        return a+2;\n    } \n    \n    function pureExample() pure public returns(uint256){\n        uint256 a2 = 3;\n        return a2+2;\n    } \n}",
  "sourcePath": "/Users/a1/Desktop/study/study-solidity/contracts/lec6.sol",
  "compiler": {
    "name": "solc",
    "version": "0.8.21+commit.d9974bed.Emscripten.clang"
  },
  "schemaVersion": "3.4.16",
  "updatedAt": "2024-09-03T14:42:59.990Z",
  "devdoc": {
    "kind": "dev",
    "methods": {},
    "version": 1
  },
  "userdoc": {
    "kind": "user",
    "methods": {},
    "version": 1
  }
}