{
  "contractName": "private_example",
  "abi": [
    {
      "inputs": [],
      "name": "get_a",
      "outputs": [
        {
          "internalType": "uint256",
          "name": "",
          "type": "uint256"
        }
      ],
      "stateMutability": "view",
      "type": "function"
    }
  ],
  "bytecode": "0x608060405260035f55348015610013575f80fd5b5060af806100205f395ff3fe6080604052348015600e575f80fd5b50600436106026575f3560e01c80634815918114602a575b5f80fd5b60306044565b604051603b91906062565b60405180910390f35b5f8054905090565b5f819050919050565b605c81604c565b82525050565b5f60208201905060735f8301846055565b9291505056fea264697066735822122016c34f7b4fd8db9584c100ad68cf401de46958ef2067d251f0532aa2a7d5e9f664736f6c63430008150033",
  "immutableReferences": {},
  "source": "// SPDX-License-Identifier: GPL-3.0\n\npragma solidity >=0.7.0 < 0.9.0;\n\ncontract lec5{\n    \n    //1.public\n    uint256 public a = 3;\n    \n    //2.private\n    uint256 private a2 = 5;\n    \n    \n}\n\n\ncontract Public_example {\n    uint256 public a = 3;\n    \n    function changeA(uint256 _value) public {\n        a =_value;\n    }\n    function get_a() view public returns (uint256)  {\n        return a;\n    }\n}\n\ncontract Public_example_2 {\n    \n    Public_example instance = new Public_example();\n\n    function changeA_2(uint256 _value) public{\n      instance.changeA(_value);\n    }\n    function use_public_example_a() view public returns (uint256)  {\n        return instance.get_a();\n    }\n}\n\ncontract private_example {\n    uint256 private a = 3;\n    \n    function get_a() view public returns (uint256)  {\n        return a;\n    }\n\n}\n\ncontract external_example {\n    uint256 private a = 3;\n    \n    function get_a() view external returns (uint256)  {\n        return a;\n    }\n\n}\n\ncontract external_example_2 {\n    \n    external_example instance = new external_example();\n\n    function external_example_get_a() view public returns (uint256)  {\n        return instance.get_a();\n    }\n}",
  "sourcePath": "/Users/a1/Desktop/study/study-solidity/contracts/lec5.sol",
  "compiler": {
    "name": "solc",
    "version": "0.8.21+commit.d9974bed.Emscripten.clang"
  },
  "schemaVersion": "3.4.16",
  "updatedAt": "2024-09-03T14:42:59.990Z",
  "devdoc": {
    "kind": "dev",
    "methods": {},
    "version": 1
  },
  "userdoc": {
    "kind": "user",
    "methods": {},
    "version": 1
  }
}