{
  "contractName": "Public_example_2",
  "abi": [
    {
      "inputs": [
        {
          "internalType": "uint256",
          "name": "_value",
          "type": "uint256"
        }
      ],
      "name": "changeA_2",
      "outputs": [],
      "stateMutability": "nonpayable",
      "type": "function"
    },
    {
      "inputs": [],
      "name": "use_public_example_a",
      "outputs": [
        {
          "internalType": "uint256",
          "name": "",
          "type": "uint256"
        }
      ],
      "stateMutability": "view",
      "type": "function"
    }
  ],
  "bytecode": "0x608060405260405161001090610079565b604051809103905ff080158015610029573d5f803e3d5ffd5b505f806101000a81548173ffffffffffffffffffffffffffffffffffffffff021916908373ffffffffffffffffffffffffffffffffffffffff160217905550348015610073575f80fd5b50610086565b6101928061031f83390190565b61028c806100935f395ff3fe608060405234801561000f575f80fd5b5060043610610034575f3560e01c8063b51e2a4614610038578063e9d462a714610054575b5f80fd5b610052600480360381019061004d91906101c4565b610072565b005b61005c6100fa565b60405161006991906101fe565b60405180910390f35b5f8054906101000a900473ffffffffffffffffffffffffffffffffffffffff1673ffffffffffffffffffffffffffffffffffffffff1663fcbfcc71826040518263ffffffff1660e01b81526004016100ca91906101fe565b5f604051808303815f87803b1580156100e1575f80fd5b505af11580156100f3573d5f803e3d5ffd5b5050505050565b5f805f9054906101000a900473ffffffffffffffffffffffffffffffffffffffff1673ffffffffffffffffffffffffffffffffffffffff1663481591816040518163ffffffff1660e01b8152600401602060405180830381865afa158015610164573d5f803e3d5ffd5b505050506040513d601f19601f82011682018060405250810190610188919061022b565b905090565b5f80fd5b5f819050919050565b6101a381610191565b81146101ad575f80fd5b50565b5f813590506101be8161019a565b92915050565b5f602082840312156101d9576101d861018d565b5b5f6101e6848285016101b0565b91505092915050565b6101f881610191565b82525050565b5f6020820190506102115f8301846101ef565b92915050565b5f815190506102258161019a565b92915050565b5f602082840312156102405761023f61018d565b5b5f61024d84828501610217565b9150509291505056fea264697066735822122039a00d1c5ad3350b9c2498ac0d3210e38b622e0b254ad8ee4e75bcc7d98fb4ca64736f6c63430008150033608060405260035f55348015610013575f80fd5b50610171806100215f395ff3fe608060405234801561000f575f80fd5b506004361061003f575f3560e01c80630dbe671f146100435780634815918114610061578063fcbfcc711461007f575b5f80fd5b61004b61009b565b60405161005891906100c9565b60405180910390f35b6100696100a0565b60405161007691906100c9565b60405180910390f35b61009960048036038101906100949190610110565b6100a8565b005b5f5481565b5f8054905090565b805f8190555050565b5f819050919050565b6100c3816100b1565b82525050565b5f6020820190506100dc5f8301846100ba565b92915050565b5f80fd5b6100ef816100b1565b81146100f9575f80fd5b50565b5f8135905061010a816100e6565b92915050565b5f60208284031215610125576101246100e2565b5b5f610132848285016100fc565b9150509291505056fea264697066735822122058bd15a32526484fe118a0ca49de9099b154b7184008a6d9e180b92bb20c740564736f6c63430008150033",
  "immutableReferences": {},
  "source": "// SPDX-License-Identifier: GPL-3.0\n\npragma solidity >=0.7.0 < 0.9.0;\n\ncontract lec5{\n    \n    //1.public\n    uint256 public a = 3;\n    \n    //2.private\n    uint256 private a2 = 5;\n    \n    \n}\n\n\ncontract Public_example {\n    uint256 public a = 3;\n    \n    function changeA(uint256 _value) public {\n        a =_value;\n    }\n    function get_a() view public returns (uint256)  {\n        return a;\n    }\n}\n\ncontract Public_example_2 {\n    \n    Public_example instance = new Public_example();\n\n    function changeA_2(uint256 _value) public{\n      instance.changeA(_value);\n    }\n    function use_public_example_a() view public returns (uint256)  {\n        return instance.get_a();\n    }\n}\n\ncontract private_example {\n    uint256 private a = 3;\n    \n    function get_a() view public returns (uint256)  {\n        return a;\n    }\n\n}\n\ncontract external_example {\n    uint256 private a = 3;\n    \n    function get_a() view external returns (uint256)  {\n        return a;\n    }\n\n}\n\ncontract external_example_2 {\n    \n    external_example instance = new external_example();\n\n    function external_example_get_a() view public returns (uint256)  {\n        return instance.get_a();\n    }\n}",
  "sourcePath": "/Users/a1/Desktop/study/study-solidity/contracts/lec5.sol",
  "compiler": {
    "name": "solc",
    "version": "0.8.21+commit.d9974bed.Emscripten.clang"
  },
  "schemaVersion": "3.4.16",
  "updatedAt": "2024-09-03T14:42:59.989Z",
  "devdoc": {
    "kind": "dev",
    "methods": {},
    "version": 1
  },
  "userdoc": {
    "kind": "user",
    "methods": {},
    "version": 1
  }
}